{
  "contractName": "CheckApk",
  "abi": [
    {
      "inputs": [],
      "stateMutability": "nonpayable",
      "type": "constructor"
    },
    {
      "inputs": [
        {
          "internalType": "address",
          "name": "",
          "type": "address"
        }
      ],
      "name": "balance",
      "outputs": [
        {
          "internalType": "uint256",
          "name": "",
          "type": "uint256"
        }
      ],
      "stateMutability": "view",
      "type": "function",
      "constant": true
    },
    {
      "inputs": [
        {
          "internalType": "uint256",
          "name": "",
          "type": "uint256"
        }
      ],
      "name": "dataScientists",
      "outputs": [
        {
          "internalType": "address",
          "name": "",
          "type": "address"
        }
      ],
      "stateMutability": "view",
      "type": "function",
      "constant": true
    },
    {
      "inputs": [],
      "name": "owner",
      "outputs": [
        {
          "internalType": "address",
          "name": "",
          "type": "address"
        }
      ],
      "stateMutability": "view",
      "type": "function",
      "constant": true
    },
    {
      "inputs": [
        {
          "internalType": "uint256",
          "name": "",
          "type": "uint256"
        }
      ],
      "name": "payableAddresses",
      "outputs": [
        {
          "internalType": "address",
          "name": "",
          "type": "address"
        }
      ],
      "stateMutability": "view",
      "type": "function",
      "constant": true
    },
    {
      "inputs": [
        {
          "internalType": "address",
          "name": "",
          "type": "address"
        }
      ],
      "name": "tokens",
      "outputs": [
        {
          "internalType": "uint256",
          "name": "",
          "type": "uint256"
        }
      ],
      "stateMutability": "view",
      "type": "function",
      "constant": true
    },
    {
      "inputs": [],
      "name": "totalTokens",
      "outputs": [
        {
          "internalType": "uint256",
          "name": "",
          "type": "uint256"
        }
      ],
      "stateMutability": "view",
      "type": "function",
      "constant": true
    },
    {
      "inputs": [
        {
          "internalType": "string",
          "name": "_modelHash",
          "type": "string"
        }
      ],
      "name": "request_training",
      "outputs": [],
      "stateMutability": "payable",
      "type": "function",
      "payable": true
    },
    {
      "inputs": [
        {
          "internalType": "address",
          "name": "recipient",
          "type": "address"
        },
        {
          "internalType": "uint256",
          "name": "_numTokens",
          "type": "uint256"
        }
      ],
      "name": "giveTokens",
      "outputs": [],
      "stateMutability": "payable",
      "type": "function",
      "payable": true
    },
    {
      "inputs": [],
      "name": "releaseFunds",
      "outputs": [],
      "stateMutability": "nonpayable",
      "type": "function"
    },
    {
      "inputs": [],
      "name": "Receive",
      "outputs": [],
      "stateMutability": "payable",
      "type": "function",
      "payable": true
    },
    {
      "inputs": [
        {
          "internalType": "uint256",
          "name": "_amount",
          "type": "uint256"
        }
      ],
      "name": "withdrawFunds",
      "outputs": [],
      "stateMutability": "nonpayable",
      "type": "function"
    },
    {
      "inputs": [
        {
          "internalType": "address",
          "name": "recipient",
          "type": "address"
        },
        {
          "internalType": "uint256",
          "name": "_amount",
          "type": "uint256"
        }
      ],
      "name": "giveFunds",
      "outputs": [],
      "stateMutability": "nonpayable",
      "type": "function"
    }
  ],
  "bytecode": "0x608060405234801561001057600080fd5b50336000806101000a81548173ffffffffffffffffffffffffffffffffffffffff021916908373ffffffffffffffffffffffffffffffffffffffff1602179055506117d4806100606000396000f3fe6080604052600436106100c4576000357c0100000000000000000000000000000000000000000000000000000000900480637e1c0c09116100815780637e1c0c09146101a7578063891bbe73146101d25780638da5cb5b1461020f5780639f1b3bad1461023a578063e3d670d714610244578063e486033914610281576100c4565b806301fad167146100c9578063155dd5ee1461010657806363a7da841461012f57806368dc95281461014b57806369d89575146101675780636e7dd9171461017e575b600080fd5b3480156100d557600080fd5b506100f060048036038101906100eb9190610e17565b6102be565b6040516100fd9190610e85565b60405180910390f35b34801561011257600080fd5b5061012d60048036038101906101289190610e17565b6102fd565b005b61014960048036038101906101449190610fe6565b61045d565b005b6101656004803603810190610160919061105b565b6105af565b005b34801561017357600080fd5b5061017c61078e565b005b34801561018a57600080fd5b506101a560048036038101906101a0919061105b565b610af8565b005b3480156101b357600080fd5b506101bc610cdc565b6040516101c991906110aa565b60405180910390f35b3480156101de57600080fd5b506101f960048036038101906101f49190610e17565b610ce2565b6040516102069190610e85565b60405180910390f35b34801561021b57600080fd5b50610224610d21565b6040516102319190610e85565b60405180910390f35b610242610d45565b005b34801561025057600080fd5b5061026b600480360381019061026691906110c5565b610d9d565b60405161027891906110aa565b60405180910390f35b34801561028d57600080fd5b506102a860048036038101906102a391906110c5565b610db5565b6040516102b591906110aa565b60405180910390f35b600681815481106102ce57600080fd5b906000526020600020016000915054906101000a900473ffffffffffffffffffffffffffffffffffffffff1681565b80600360003373ffffffffffffffffffffffffffffffffffffffff1673ffffffffffffffffffffffffffffffffffffffff16815260200190815260200160002054101561037f576040517f08c379a000000000000000000000000000000000000000000000000000000000815260040161037690611175565b60405180910390fd5b80600360003373ffffffffffffffffffffffffffffffffffffffff1673ffffffffffffffffffffffffffffffffffffffff168152602001908152602001600020546103ca91906111c4565b600360003373ffffffffffffffffffffffffffffffffffffffff1673ffffffffffffffffffffffffffffffffffffffff1681526020019081526020016000208190555060003390508073ffffffffffffffffffffffffffffffffffffffff166108fc839081150290604051600060405180830381858888f19350505050158015610458573d6000803e3d6000fd5b505050565b600034116104a0576040517f08c379a000000000000000000000000000000000000000000000000000000000815260040161049790611244565b60405180910390fd5b600033905081600560008373ffffffffffffffffffffffffffffffffffffffff1673ffffffffffffffffffffffffffffffffffffffff16815260200190815260200160002090816104f19190611481565b506006819080600181540180825580915050600190039060005260206000200160009091909190916101000a81548173ffffffffffffffffffffffffffffffffffffffff021916908373ffffffffffffffffffffffffffffffffffffffff16021790555034600360008373ffffffffffffffffffffffffffffffffffffffff1673ffffffffffffffffffffffffffffffffffffffff16815260200190815260200160002060008282546105a49190611553565b925050819055505050565b60008054906101000a900473ffffffffffffffffffffffffffffffffffffffff1673ffffffffffffffffffffffffffffffffffffffff163373ffffffffffffffffffffffffffffffffffffffff161461063d576040517f08c379a0000000000000000000000000000000000000000000000000000000008152600401610634906115f9565b60405180910390fd5b8060025461064b9190611553565b6002819055506000600160008473ffffffffffffffffffffffffffffffffffffffff1673ffffffffffffffffffffffffffffffffffffffff16815260200190815260200160002054036106fc576004829080600181540180825580915050600190039060005260206000200160009091909190916101000a81548173ffffffffffffffffffffffffffffffffffffffff021916908373ffffffffffffffffffffffffffffffffffffffff1602179055505b80600160008473ffffffffffffffffffffffffffffffffffffffff1673ffffffffffffffffffffffffffffffffffffffff168152602001908152602001600020546107479190611553565b600160008473ffffffffffffffffffffffffffffffffffffffff1673ffffffffffffffffffffffffffffffffffffffff168152602001908152602001600020819055505050565b60008054906101000a900473ffffffffffffffffffffffffffffffffffffffff1673ffffffffffffffffffffffffffffffffffffffff163373ffffffffffffffffffffffffffffffffffffffff161461081c576040517f08c379a0000000000000000000000000000000000000000000000000000000008152600401610813906115f9565b60405180910390fd5b600360008060009054906101000a900473ffffffffffffffffffffffffffffffffffffffff1673ffffffffffffffffffffffffffffffffffffffff1673ffffffffffffffffffffffffffffffffffffffff1681526020019081526020016000205460025411156109c0576000600360008060009054906101000a900473ffffffffffffffffffffffffffffffffffffffff1673ffffffffffffffffffffffffffffffffffffffff1673ffffffffffffffffffffffffffffffffffffffff168152602001908152602001600020546002546108f69190611648565b905060005b6004805490508110156109b95760006004828154811061091e5761091d611679565b5b9060005260206000200160009054906101000a900473ffffffffffffffffffffffffffffffffffffffff169050600083600160008473ffffffffffffffffffffffffffffffffffffffff1673ffffffffffffffffffffffffffffffffffffffff168152602001908152602001600020546109989190611648565b90506109a48282610af8565b505080806109b1906116a8565b9150506108fb565b5050610af6565b6000600254600360008060009054906101000a900473ffffffffffffffffffffffffffffffffffffffff1673ffffffffffffffffffffffffffffffffffffffff1673ffffffffffffffffffffffffffffffffffffffff16815260200190815260200160002054610a309190611648565b905060005b600480549050811015610af357600060048281548110610a5857610a57611679565b5b9060005260206000200160009054906101000a900473ffffffffffffffffffffffffffffffffffffffff169050600083600160008473ffffffffffffffffffffffffffffffffffffffff1673ffffffffffffffffffffffffffffffffffffffff16815260200190815260200160002054610ad291906116f0565b9050610ade8282610af8565b50508080610aeb906116a8565b915050610a35565b50505b565b80600360003373ffffffffffffffffffffffffffffffffffffffff1673ffffffffffffffffffffffffffffffffffffffff168152602001908152602001600020541015610b7a576040517f08c379a0000000000000000000000000000000000000000000000000000000008152600401610b719061177e565b60405180910390fd5b80600360008060009054906101000a900473ffffffffffffffffffffffffffffffffffffffff1673ffffffffffffffffffffffffffffffffffffffff1673ffffffffffffffffffffffffffffffffffffffff16815260200190815260200160002054610be691906111c4565b600360008060009054906101000a900473ffffffffffffffffffffffffffffffffffffffff1673ffffffffffffffffffffffffffffffffffffffff1673ffffffffffffffffffffffffffffffffffffffff1681526020019081526020016000208190555080600360008473ffffffffffffffffffffffffffffffffffffffff1673ffffffffffffffffffffffffffffffffffffffff16815260200190815260200160002054610c959190611553565b600360008473ffffffffffffffffffffffffffffffffffffffff1673ffffffffffffffffffffffffffffffffffffffff168152602001908152602001600020819055505050565b60025481565b60048181548110610cf257600080fd5b906000526020600020016000915054906101000a900473ffffffffffffffffffffffffffffffffffffffff1681565b60008054906101000a900473ffffffffffffffffffffffffffffffffffffffff1681565b34600360003373ffffffffffffffffffffffffffffffffffffffff1673ffffffffffffffffffffffffffffffffffffffff1681526020019081526020016000206000828254610d949190611553565b92505081905550565b60036020528060005260406000206000915090505481565b60016020528060005260406000206000915090505481565b6000604051905090565b600080fd5b600080fd5b6000819050919050565b610df481610de1565b8114610dff57600080fd5b50565b600081359050610e1181610deb565b92915050565b600060208284031215610e2d57610e2c610dd7565b5b6000610e3b84828501610e02565b91505092915050565b600073ffffffffffffffffffffffffffffffffffffffff82169050919050565b6000610e6f82610e44565b9050919050565b610e7f81610e64565b82525050565b6000602082019050610e9a6000830184610e76565b92915050565b600080fd5b600080fd5b6000601f19601f8301169050919050565b7f4e487b7100000000000000000000000000000000000000000000000000000000600052604160045260246000fd5b610ef382610eaa565b810181811067ffffffffffffffff82111715610f1257610f11610ebb565b5b80604052505050565b6000610f25610dcd565b9050610f318282610eea565b919050565b600067ffffffffffffffff821115610f5157610f50610ebb565b5b610f5a82610eaa565b9050602081019050919050565b82818337600083830152505050565b6000610f89610f8484610f36565b610f1b565b905082815260208101848484011115610fa557610fa4610ea5565b5b610fb0848285610f67565b509392505050565b600082601f830112610fcd57610fcc610ea0565b5b8135610fdd848260208601610f76565b91505092915050565b600060208284031215610ffc57610ffb610dd7565b5b600082013567ffffffffffffffff81111561101a57611019610ddc565b5b61102684828501610fb8565b91505092915050565b61103881610e64565b811461104357600080fd5b50565b6000813590506110558161102f565b92915050565b6000806040838503121561107257611071610dd7565b5b600061108085828601611046565b925050602061109185828601610e02565b9150509250929050565b6110a481610de1565b82525050565b60006020820190506110bf600083018461109b565b92915050565b6000602082840312156110db576110da610dd7565b5b60006110e984828501611046565b91505092915050565b600082825260208201905092915050565b7f5769746864726177616c20616d6f756e7420657863656564732062616c616e6360008201527f6500000000000000000000000000000000000000000000000000000000000000602082015250565b600061115f6021836110f2565b915061116a82611103565b604082019050919050565b6000602082019050818103600083015261118e81611152565b9050919050565b7f4e487b7100000000000000000000000000000000000000000000000000000000600052601160045260246000fd5b60006111cf82610de1565b91506111da83610de1565b92508282039050818111156111f2576111f1611195565b5b92915050565b7f596f75206d7573742073656e6420736f6d652065746865722100000000000000600082015250565b600061122e6019836110f2565b9150611239826111f8565b602082019050919050565b6000602082019050818103600083015261125d81611221565b9050919050565b600081519050919050565b7f4e487b7100000000000000000000000000000000000000000000000000000000600052602260045260246000fd5b600060028204905060018216806112b657607f821691505b6020821081036112c9576112c861126f565b5b50919050565b60008190508160005260206000209050919050565b60006020601f8301049050919050565b60008160020a8302905092915050565b6000600883026113347fffffffffffffffffffffffffffffffffffffffffffffffffffffffffffffffff826112f4565b61133e86836112f4565b95508019841693508086168417925050509392505050565b6000819050919050565b600061137b61137661137184610de1565b611356565b610de1565b9050919050565b6000819050919050565b61139583611360565b6113a96113a182611382565b848454611304565b825550505050565b600090565b6113be6113b1565b6113c981848461138c565b505050565b5b818110156113ed576113e26000826113b6565b6001810190506113cf565b5050565b601f82111561143257611403816112cf565b61140c846112e4565b8101602085101561141b578190505b61142f611427856112e4565b8301826113ce565b50505b505050565b60008160020a8304905092915050565b600061145860001984600802611437565b1980831691505092915050565b60006114718383611447565b9150826002028217905092915050565b61148a82611264565b67ffffffffffffffff8111156114a3576114a2610ebb565b5b6114ad825461129e565b6114b88282856113f1565b600060209050601f8311600181146114eb57600084156114d9578287015190505b6114e38582611465565b86555061154b565b601f1984166114f9866112cf565b60005b82811015611521578489015182556001820191506020850194506020810190506114fc565b8683101561153e578489015161153a601f891682611447565b8355505b6001600288020188555050505b505050505050565b600061155e82610de1565b915061156983610de1565b925082820190508082111561158157611580611195565b5b92915050565b7f4f6e6c792074686520636f6e7472616374206f776e65722063616e207065726660008201527f6f726d2074686973206f7065726174696f6e0000000000000000000000000000602082015250565b60006115e36032836110f2565b91506115ee82611587565b604082019050919050565b60006020820190508181036000830152611612816115d6565b9050919050565b7f4e487b7100000000000000000000000000000000000000000000000000000000600052601260045260246000fd5b600061165382610de1565b915061165e83610de1565b92508261166e5761166d611619565b5b828204905092915050565b7f4e487b7100000000000000000000000000000000000000000000000000000000600052603260045260246000fd5b60006116b382610de1565b91507fffffffffffffffffffffffffffffffffffffffffffffffffffffffffffffffff82036116e5576116e4611195565b5b600182019050919050565b60006116fb82610de1565b915061170683610de1565b925082820261171481610de1565b9150828204841483151761172b5761172a611195565b5b5092915050565b7f5061796d656e7420616d6f756e7420657863656564732062616c616e63650000600082015250565b6000611768601e836110f2565b915061177382611732565b602082019050919050565b600060208201905081810360008301526117978161175b565b905091905056fea26469706673582212206bf3921717273f7423ec7dbae77a4efa1d20605ac60ed52e21744f08966c4ebc64736f6c63430008110033",
  "immutableReferences": {},
  "source": "pragma solidity >=0.4.22 <0.9.0;\r\n\r\n\r\ncontract CheckApk {\r\n    address public owner;\r\n\r\n    mapping(address => uint256) public tokens;\r\n    uint256 public totalTokens;\r\n\r\n    // Eth withdrawable for each account.\r\n    // The owner's balance is the stake which is released to trainers.\r\n    mapping(address => uint256) public balance;\r\n\r\n    // The non-owner addresses with non-zero balance.\r\n    address[] public payableAddresses;\r\n\r\n    // hash of models sent to the network, index on owner's address\r\n    mapping (address => string) models;\r\n\r\n    // record model owners\r\n    address[] public dataScientists;\r\n\r\n    constructor() public {\r\n        owner = msg.sender;\r\n    }\r\n\r\n    modifier ownerOnly {\r\n        require(\r\n            msg.sender == owner,\r\n            \"Only the contract owner can perform this operation\"\r\n        );\r\n        _;\r\n    }\r\n\r\n    function request_training(string memory _modelHash) public payable {\r\n      require(msg.value > 0, \"You must send some ether!\");\r\n\r\n      address dataScientist = msg.sender;\r\n\r\n      models[dataScientist] = _modelHash;\r\n      dataScientists.push(dataScientist);\r\n\r\n      balance[dataScientist] += msg.value;\r\n    }\r\n\r\n    function giveTokens(address recipient, uint256 _numTokens) payable\r\n        external\r\n        ownerOnly()\r\n    {\r\n        totalTokens = totalTokens + _numTokens;\r\n        if (tokens[recipient] == 0) {\r\n            payableAddresses.push(recipient);\r\n        }\r\n        tokens[recipient] = tokens[recipient] + _numTokens;\r\n    }\r\n\r\n    function releaseFunds() external ownerOnly() {\r\n        if (totalTokens > balance[owner]) {\r\n            uint256 tokensPerWei = totalTokens / balance[owner];\r\n            for (uint256 i = 0; i < payableAddresses.length; i++) {\r\n                address recipient = payableAddresses[i];\r\n                uint256 amount = tokens[recipient] / tokensPerWei;\r\n                giveFunds(recipient, amount);\r\n            }\r\n        } else {\r\n            uint256 weiPerToken = balance[owner] / totalTokens;\r\n            for (uint256 i = 0; i < payableAddresses.length; i++) {\r\n                address recipient = payableAddresses[i];\r\n                uint256 amount = tokens[recipient] * weiPerToken;\r\n                giveFunds(recipient, amount);\r\n            }\r\n        }\r\n    }\r\n\r\n    function Receive() public payable {\r\n      balance[msg.sender] += msg.value;\r\n    }\r\n\r\n//rut tien\r\n    function withdrawFunds(uint256 _amount) external {\r\n        require(\r\n            balance[msg.sender] >= _amount,\r\n            \"Withdrawal amount exceeds balance\"\r\n        );\r\n        balance[msg.sender] = balance[msg.sender] - _amount;\r\n        address payable recipient = payable(msg.sender);\r\n        recipient.transfer(_amount);\r\n    }\r\n\r\n    function giveFunds(address recipient, uint256 _amount)\r\n        // internal\r\n        // ownerOnly()\r\n        public\r\n    {\r\n        require(\r\n            balance[msg.sender] >= _amount,\r\n            \"Payment amount exceeds balance\"\r\n        );\r\n        balance[owner] = balance[owner] - _amount;\r\n        balance[recipient] = balance[recipient] + _amount;\r\n    }\r\n}\r\n\r\n\r\n// pragma solidity >=0.4.22 <0.9.0;\r\n\r\n// contract CheckApk {\r\n\r\n//     address public owner;\r\n\r\n//     address payable [] public recipients;\r\n\r\n//     address payable [] public _addrss;\r\n\r\n//     uint256 public successCheckCount;\r\n    \r\n//     modifier onlyOwner() {\r\n//         require(msg.sender == owner, \"You're not the smart contract owner!\");\r\n//         _;\r\n//     }\r\n\r\n//     // struct SuspiciousApk {\r\n//     //     uint id;\r\n//     //     bool isSuccessTraining;\r\n//     // }\r\n\r\n//     // mapping (uint256 => SuspiciousApk) public apks;\r\n\r\n//     mapping(address => uint256) public balance;\r\n\r\n//     event CheckSucceed(uint id);\r\n\r\n//     event TransferReceived(address _from, uint _amount);\r\n\r\n//     event Deposited(address from, uint amount);\r\n\r\n  \r\n\r\n\r\n//     constructor() {\r\n// // address[] memory markets = new address[](1)\r\n// // markets[0] = address(cdaitoken)\r\n    \r\n//         // apks[0] = SuspiciousApk(0, true);\r\n//         // successCheckCount = 1;\r\n//     address _addr1 = 0x4eF87b6306aCD3F7E5d9Dd7b77C5B378497e4aB5;\r\n//     address _addr2 = 0xB0BAC582099Bcd3BbD3A287447184769C7f26C52;\r\n//     address _addr3 = 0xb4DF523eF4dB21344cbD6888d8b9De4945c24f56;\r\n//         owner = msg.sender;\r\n\r\n//         // for (uint i=0; i<_addrs.length; i++){\r\n//         //     recipients.push(_addrs[i]);\r\n//         // }\r\n//         recipients.push(payable(_addr1));\r\n//               recipients.push(payable(_addr2));\r\n//          recipients.push(payable(_addr3));\r\n//  // recipients.push(_addr2);\r\n//         // recipients.push(_addr3);\r\n//     }\r\n\r\n//     function checkApk(bool _isSuccess) public {\r\n//         // uint256 _id = successCheckCount - 1;\r\n//         // apks[successCheckCount++] = SuspiciousApk(_id, _isSuccess);\r\n//     //    if (_isSuccess == true) {receive() }\r\n//         // emit CheckSucceed(_id);\r\n//     }\r\n\r\n//     function Receive() public payable {\r\n//       balance[msg.sender] += msg.value;\r\n//     }\r\n\r\n//     receive() payable external {\r\n//         uint256 share = msg.value;\r\n//         for(uint i=0; i < recipients.length; i++){\r\n//             recipients[i].transfer(share);\r\n//         }    \r\n//         emit TransferReceived(msg.sender, msg.value);\r\n//     }  \r\n  \r\n// }",
  "sourcePath": "D:\\STUDY\\UIT\\Semester 7\\Information Assurance and Security\\demo\\contracts\\CheckApk.sol",
  "compiler": {
    "name": "solc",
    "version": "0.8.17+commit.8df45f5f.Emscripten.clang"
  },
  "schemaVersion": "3.4.10",
  "updatedAt": "2022-12-05T18:30:44.592Z",
  "networkType": "ethereum",
  "devdoc": {
    "kind": "dev",
    "methods": {},
    "version": 1
  },
  "userdoc": {
    "kind": "user",
    "methods": {},
    "version": 1
  }
}