{
  "contractName": "CheckApk",
  "abi": [
    {
      "inputs": [],
      "stateMutability": "nonpayable",
      "type": "constructor"
    },
    {
      "anonymous": false,
      "inputs": [
        {
          "indexed": false,
          "internalType": "uint256",
          "name": "id",
          "type": "uint256"
        }
      ],
      "name": "CheckSucceed",
      "type": "event"
    },
    {
      "inputs": [
        {
          "internalType": "uint256",
          "name": "",
          "type": "uint256"
        }
      ],
      "name": "apks",
      "outputs": [
        {
          "internalType": "uint256",
          "name": "id",
          "type": "uint256"
        },
        {
          "internalType": "bool",
          "name": "isSuccessTraining",
          "type": "bool"
        }
      ],
      "stateMutability": "view",
      "type": "function",
      "constant": true
    },
    {
      "inputs": [],
      "name": "successCheckCount",
      "outputs": [
        {
          "internalType": "uint256",
          "name": "",
          "type": "uint256"
        }
      ],
      "stateMutability": "view",
      "type": "function",
      "constant": true
    },
    {
      "inputs": [
        {
          "internalType": "bool",
          "name": "_isSuccess",
          "type": "bool"
        }
      ],
      "name": "checkApk",
      "outputs": [],
      "stateMutability": "nonpayable",
      "type": "function"
    }
  ],
  "bytecode": "0x608060405234801561001057600080fd5b5060405180604001604052806000815260200160011515815250600160008081526020019081526020016000206000820151816000015560208201518160010160006101000a81548160ff02191690831515021790555090505060016000819055506103cf806100816000396000f3fe608060405234801561001057600080fd5b506004361061005e576000357c010000000000000000000000000000000000000000000000000000000090048063658f77d21461006357806376bb9dd41461007f5780637d2c950b146100b0575b600080fd5b61007d600480360381019061007891906101fc565b6100ce565b005b6100996004803603810190610094919061025f565b610188565b6040516100a79291906102aa565b60405180910390f35b6100b86101b9565b6040516100c591906102d3565b60405180910390f35b600060016000546100df919061031d565b905060405180604001604052808281526020018315158152506001600080600081548092919061010e90610351565b9190505581526020019081526020016000206000820151816000015560208201518160010160006101000a81548160ff0219169083151502179055509050507ff316e0b75f2cbe374b5c8ad3530054e0e1fc78a1ba82799e87ec5bef93518fa08160405161017c91906102d3565b60405180910390a15050565b60016020528060005260406000206000915090508060000154908060010160009054906101000a900460ff16905082565b60005481565b600080fd5b60008115159050919050565b6101d9816101c4565b81146101e457600080fd5b50565b6000813590506101f6816101d0565b92915050565b600060208284031215610212576102116101bf565b5b6000610220848285016101e7565b91505092915050565b6000819050919050565b61023c81610229565b811461024757600080fd5b50565b60008135905061025981610233565b92915050565b600060208284031215610275576102746101bf565b5b60006102838482850161024a565b91505092915050565b61029581610229565b82525050565b6102a4816101c4565b82525050565b60006040820190506102bf600083018561028c565b6102cc602083018461029b565b9392505050565b60006020820190506102e8600083018461028c565b92915050565b7f4e487b7100000000000000000000000000000000000000000000000000000000600052601160045260246000fd5b600061032882610229565b915061033383610229565b925082820390508181111561034b5761034a6102ee565b5b92915050565b600061035c82610229565b91507fffffffffffffffffffffffffffffffffffffffffffffffffffffffffffffffff820361038e5761038d6102ee565b5b60018201905091905056fea2646970667358221220e923f2dc1a4a9a732cd8aae808cea5d754cba1d14f9d9174f49a07a7e8c0ed5764736f6c63430008110033",
  "immutableReferences": {},
  "source": "pragma solidity >=0.4.22 <0.9.0;\r\n\r\ncontract CheckApk {\r\n\r\n    uint256 public successCheckCount;\r\n\r\n    struct SuspiciousApk {\r\n        uint id;\r\n        bool isSuccessTraining;\r\n        // bool isMalign;\r\n    }\r\n\r\n    mapping (uint256 => SuspiciousApk) public apks;\r\n\r\n    event CheckSucceed(uint id);\r\n\r\n    constructor() {\r\n        apks[0] = SuspiciousApk(0, true);\r\n        successCheckCount = 1;\r\n    }\r\n\r\n    function checkApk(bool _isSuccess) public {\r\n        uint256 _id = successCheckCount - 1;\r\n        apks[successCheckCount++] = SuspiciousApk(_id, _isSuccess);\r\n        emit CheckSucceed(_id);\r\n    }\r\n}",
  "sourcePath": "D:\\STUDY\\UIT\\Semester 7\\Information Assurance and Security\\demo\\contracts\\CheckApk.sol",
  "compiler": {
    "name": "solc",
    "version": "0.8.17+commit.8df45f5f.Emscripten.clang"
  },
  "schemaVersion": "3.4.10",
  "updatedAt": "2022-11-28T20:40:42.254Z",
  "networkType": "ethereum",
  "devdoc": {
    "kind": "dev",
    "methods": {},
    "version": 1
  },
  "userdoc": {
    "kind": "user",
    "methods": {},
    "version": 1
  }
}