{
  "contractName": "CheckApk",
  "abi": [
    {
      "inputs": [],
      "stateMutability": "nonpayable",
      "type": "constructor"
    },
    {
      "inputs": [
        {
          "internalType": "address",
          "name": "",
          "type": "address"
        }
      ],
      "name": "balance",
      "outputs": [
        {
          "internalType": "uint256",
          "name": "",
          "type": "uint256"
        }
      ],
      "stateMutability": "view",
      "type": "function",
      "constant": true
    },
    {
      "inputs": [],
      "name": "myBalance",
      "outputs": [
        {
          "internalType": "uint256",
          "name": "",
          "type": "uint256"
        }
      ],
      "stateMutability": "view",
      "type": "function",
      "constant": true
    },
    {
      "inputs": [],
      "name": "owner",
      "outputs": [
        {
          "internalType": "address",
          "name": "",
          "type": "address"
        }
      ],
      "stateMutability": "view",
      "type": "function",
      "constant": true
    },
    {
      "inputs": [],
      "name": "giveEthToContract",
      "outputs": [],
      "stateMutability": "payable",
      "type": "function",
      "payable": true
    },
    {
      "inputs": [
        {
          "internalType": "uint256",
          "name": "_amount",
          "type": "uint256"
        }
      ],
      "name": "withdrawEth",
      "outputs": [],
      "stateMutability": "nonpayable",
      "type": "function"
    }
  ],
  "bytecode": "0x608060405234801561001057600080fd5b50336000806101000a81548173ffffffffffffffffffffffffffffffffffffffff021916908373ffffffffffffffffffffffffffffffffffffffff1602179055503373ffffffffffffffffffffffffffffffffffffffff16316002819055506106018061007e6000396000f3fe608060405260043610610067576000357c0100000000000000000000000000000000000000000000000000000000900480638da5cb5b1461006c578063c311d04914610097578063c9116b69146100c0578063e1d34540146100eb578063e3d670d7146100f5575b600080fd5b34801561007857600080fd5b50610081610132565b60405161008e919061038b565b60405180910390f35b3480156100a357600080fd5b506100be60048036038101906100b991906103e1565b610156565b005b3480156100cc57600080fd5b506100d56102d4565b6040516100e2919061041d565b60405180910390f35b6100f36102da565b005b34801561010157600080fd5b5061011c60048036038101906101179190610464565b610332565b604051610129919061041d565b60405180910390f35b60008054906101000a900473ffffffffffffffffffffffffffffffffffffffff1681565b80600160003373ffffffffffffffffffffffffffffffffffffffff1673ffffffffffffffffffffffffffffffffffffffff1681526020019081526020016000205410156101d8576040517f08c379a00000000000000000000000000000000000000000000000000000000081526004016101cf90610514565b60405180910390fd5b80600160003373ffffffffffffffffffffffffffffffffffffffff1673ffffffffffffffffffffffffffffffffffffffff168152602001908152602001600020546102239190610563565b600160003373ffffffffffffffffffffffffffffffffffffffff1673ffffffffffffffffffffffffffffffffffffffff168152602001908152602001600020819055503373ffffffffffffffffffffffffffffffffffffffff163160028190555060003390508073ffffffffffffffffffffffffffffffffffffffff166108fc839081150290604051600060405180830381858888f193505050501580156102cf573d6000803e3d6000fd5b505050565b60025481565b34600160003373ffffffffffffffffffffffffffffffffffffffff1673ffffffffffffffffffffffffffffffffffffffff16815260200190815260200160002060008282546103299190610597565b92505081905550565b60016020528060005260406000206000915090505481565b600073ffffffffffffffffffffffffffffffffffffffff82169050919050565b60006103758261034a565b9050919050565b6103858161036a565b82525050565b60006020820190506103a0600083018461037c565b92915050565b600080fd5b6000819050919050565b6103be816103ab565b81146103c957600080fd5b50565b6000813590506103db816103b5565b92915050565b6000602082840312156103f7576103f66103a6565b5b6000610405848285016103cc565b91505092915050565b610417816103ab565b82525050565b6000602082019050610432600083018461040e565b92915050565b6104418161036a565b811461044c57600080fd5b50565b60008135905061045e81610438565b92915050565b60006020828403121561047a576104796103a6565b5b60006104888482850161044f565b91505092915050565b600082825260208201905092915050565b7f5769746864726177616c20616d6f756e7420657863656564732062616c616e6360008201527f6500000000000000000000000000000000000000000000000000000000000000602082015250565b60006104fe602183610491565b9150610509826104a2565b604082019050919050565b6000602082019050818103600083015261052d816104f1565b9050919050565b7f4e487b7100000000000000000000000000000000000000000000000000000000600052601160045260246000fd5b600061056e826103ab565b9150610579836103ab565b925082820390508181111561059157610590610534565b5b92915050565b60006105a2826103ab565b91506105ad836103ab565b92508282019050808211156105c5576105c4610534565b5b9291505056fea2646970667358221220df3b1c2f112c65f56d11071b05ed3e2aa22836317aa096bb9b206a88414e7a2464736f6c63430008110033",
  "immutableReferences": {},
  "source": "pragma solidity >=0.4.22 <0.9.0;\r\n\r\n\r\ncontract CheckApk {\r\n    address public owner;\r\n\r\n    mapping(address => uint256) public balance;\r\n\r\n    uint256 public myBalance;\r\n\r\n    constructor() public {\r\n        owner = msg.sender;\r\n        myBalance = address(msg.sender).balance;\r\n    }\r\n\r\n    modifier ownerOnly {\r\n        require(\r\n            msg.sender == owner,\r\n            \"Only the contract owner can perform this operation\"\r\n        );\r\n        _;\r\n    }\r\n\r\n    function giveEthToContract() public payable {\r\n      balance[msg.sender] += msg.value;\r\n    }\r\n\r\n//rut tien\r\n    function withdrawEth(uint256 _amount) external {\r\n        require(\r\n            balance[msg.sender] >= _amount,\r\n            \"Withdrawal amount exceeds balance\"\r\n        );\r\n        balance[msg.sender] = balance[msg.sender] - _amount;\r\n        myBalance = address(msg.sender).balance;\r\n        address payable recipient = payable(msg.sender);\r\n        recipient.transfer(_amount);\r\n    }\r\n\r\n    // function balanceOf() public view returns (uint256) {return address(msg.sender).balance;}\r\n\r\n}",
  "sourcePath": "D:\\STUDY\\UIT\\Semester 7\\Information Assurance and Security\\demo\\contracts\\CheckApk.sol",
  "compiler": {
    "name": "solc",
    "version": "0.8.17+commit.8df45f5f.Emscripten.clang"
  },
  "schemaVersion": "3.4.10",
  "updatedAt": "2022-12-08T03:16:52.105Z",
  "networkType": "ethereum",
  "devdoc": {
    "kind": "dev",
    "methods": {},
    "version": 1
  },
  "userdoc": {
    "kind": "user",
    "methods": {},
    "version": 1
  }
}