{
  "contractName": "HelloWorld",
  "abi": [
    {
      "inputs": [],
      "stateMutability": "nonpayable",
      "type": "constructor"
    },
    {
      "inputs": [],
      "name": "yourName",
      "outputs": [
        {
          "internalType": "string",
          "name": "",
          "type": "string"
        }
      ],
      "stateMutability": "view",
      "type": "function",
      "constant": true
    },
    {
      "inputs": [
        {
          "internalType": "string",
          "name": "name",
          "type": "string"
        }
      ],
      "name": "setName",
      "outputs": [],
      "stateMutability": "nonpayable",
      "type": "function"
    }
  ],
  "bytecode": "0x60806040523480156200001157600080fd5b506040518060400160405280600681526020017f4c696e686e65000000000000000000000000000000000000000000000000000081525060009081620000589190620002df565b50620003c6565b600081519050919050565b7f4e487b7100000000000000000000000000000000000000000000000000000000600052604160045260246000fd5b7f4e487b7100000000000000000000000000000000000000000000000000000000600052602260045260246000fd5b60006002820490506001821680620000e157607f821691505b602082108103620000f757620000f662000099565b5b50919050565b60008190508160005260206000209050919050565b60006020601f8301049050919050565b60008160020a8302905092915050565b600060088302620001647fffffffffffffffffffffffffffffffffffffffffffffffffffffffffffffffff8262000122565b62000170868362000122565b95508019841693508086168417925050509392505050565b6000819050919050565b6000819050919050565b6000620001bd620001b7620001b18462000188565b62000192565b62000188565b9050919050565b6000819050919050565b620001d9836200019c565b620001f1620001e882620001c4565b84845462000132565b825550505050565b600090565b62000208620001f9565b62000215818484620001ce565b505050565b5b818110156200023d5762000231600082620001fe565b6001810190506200021b565b5050565b601f8211156200028c576200025681620000fd565b620002618462000112565b8101602085101562000271578190505b62000289620002808562000112565b8301826200021a565b50505b505050565b60008160020a8304905092915050565b6000620002b46000198460080262000291565b1980831691505092915050565b6000620002cf8383620002a1565b9150826002028217905092915050565b620002ea826200005f565b67ffffffffffffffff8111156200030657620003056200006a565b5b620003128254620000c8565b6200031f82828562000241565b600060209050601f83116001811462000357576000841562000342578287015190505b6200034e8582620002c1565b865550620003be565b601f1984166200036786620000fd565b60005b8281101562000391578489015182556001820191506020850194506020810190506200036a565b86831015620003b15784890151620003ad601f891682620002a1565b8355505b6001600288020188555050505b505050505050565b61069b80620003d66000396000f3fe608060405234801561001057600080fd5b5060043610610053576000357c010000000000000000000000000000000000000000000000000000000090048063c47f002714610058578063d97d663014610074575b600080fd5b610072600480360381019061006d919061028d565b610092565b005b61007c6100a5565b6040516100899190610355565b60405180910390f35b80600090816100a19190610593565b5050565b600080546100b2906103a6565b80601f01602080910402602001604051908101604052809291908181526020018280546100de906103a6565b801561012b5780601f106101005761010080835404028352916020019161012b565b820191906000526020600020905b81548152906001019060200180831161010e57829003601f168201915b505050505081565b6000604051905090565b600080fd5b600080fd5b600080fd5b600080fd5b6000601f19601f8301169050919050565b7f4e487b7100000000000000000000000000000000000000000000000000000000600052604160045260246000fd5b61019a82610151565b810181811067ffffffffffffffff821117156101b9576101b8610162565b5b80604052505050565b60006101cc610133565b90506101d88282610191565b919050565b600067ffffffffffffffff8211156101f8576101f7610162565b5b61020182610151565b9050602081019050919050565b82818337600083830152505050565b600061023061022b846101dd565b6101c2565b90508281526020810184848401111561024c5761024b61014c565b5b61025784828561020e565b509392505050565b600082601f83011261027457610273610147565b5b813561028484826020860161021d565b91505092915050565b6000602082840312156102a3576102a261013d565b5b600082013567ffffffffffffffff8111156102c1576102c0610142565b5b6102cd8482850161025f565b91505092915050565b600081519050919050565b600082825260208201905092915050565b60005b838110156103105780820151818401526020810190506102f5565b60008484015250505050565b6000610327826102d6565b61033181856102e1565b93506103418185602086016102f2565b61034a81610151565b840191505092915050565b6000602082019050818103600083015261036f818461031c565b905092915050565b7f4e487b7100000000000000000000000000000000000000000000000000000000600052602260045260246000fd5b600060028204905060018216806103be57607f821691505b6020821081036103d1576103d0610377565b5b50919050565b60008190508160005260206000209050919050565b60006020601f8301049050919050565b60008160020a8302905092915050565b60006008830261043c7fffffffffffffffffffffffffffffffffffffffffffffffffffffffffffffffff826103fc565b61044686836103fc565b95508019841693508086168417925050509392505050565b6000819050919050565b6000819050919050565b600061048d6104886104838461045e565b610468565b61045e565b9050919050565b6000819050919050565b6104a783610472565b6104bb6104b382610494565b84845461040c565b825550505050565b600090565b6104d06104c3565b6104db81848461049e565b505050565b5b818110156104ff576104f46000826104c8565b6001810190506104e1565b5050565b601f82111561054457610515816103d7565b61051e846103ec565b8101602085101561052d578190505b610541610539856103ec565b8301826104e0565b50505b505050565b60008160020a8304905092915050565b600061056a60001984600802610549565b1980831691505092915050565b60006105838383610559565b9150826002028217905092915050565b61059c826102d6565b67ffffffffffffffff8111156105b5576105b4610162565b5b6105bf82546103a6565b6105ca828285610503565b600060209050601f8311600181146105fd57600084156105eb578287015190505b6105f58582610577565b86555061065d565b601f19841661060b866103d7565b60005b828110156106335784890151825560018201915060208501945060208101905061060e565b86831015610650578489015161064c601f891682610559565b8355505b6001600288020188555050505b50505050505056fea2646970667358221220b5779d76807da52be6ec3686e0a0572aeffa18ed4e0fe9fa3cf2bba8f86b7a5864736f6c63430008110033",
  "immutableReferences": {},
  "source": "// SPDX-License-Identifier: MIT\npragma solidity >=0.4.22 <0.9.0;\n\ncontract HelloWorld {\n\n  string public yourName ;\n\n    constructor(){\n        yourName = \"Linhne\" ;\n    }\n\n    function setName(string memory name) public {\n        yourName = name;\n    }\n}\n",
  "sourcePath": "D:\\STUDY\\UIT\\Semester 7\\Information Assurance and Security\\demo\\contracts\\HelloWorld.sol",
  "compiler": {
    "name": "solc",
    "version": "0.8.17+commit.8df45f5f.Emscripten.clang"
  },
  "schemaVersion": "3.4.10",
  "updatedAt": "2022-11-28T20:40:41.320Z",
  "networkType": "ethereum",
  "devdoc": {
    "kind": "dev",
    "methods": {},
    "version": 1
  },
  "userdoc": {
    "kind": "user",
    "methods": {},
    "version": 1
  }
}